:020000040800F2
:10000000201400204D010008A5050008D5040008B3
:10001000A1050008ED010008D50A00080000000055
:10002000000000000000000000000000D3070008EE
:10003000F101000800000000A705000865010008A4
:1000400067010008670100086701000867010008F0
:1000500067010008670100086701000867010008E0
:1000600067010008670100086701000867010008D0
:1000700067010008670100086701000867010008C0
:1000800067010008670100086701000867010008B0
:1000900067010008670100086701000867010008A0
:1000A0006701000867010008670100086701000890
:1000B0006701000867010008670100086701000880
:1000C0006701000867010008670100086701000870
:1000D0006701000867010008670100086701000860
:1000E0006701000867010008670100086701000850
:1000F0006701000867010008670100086701000840
:10010000670100086701000867010008670100082F
:10011000670100086701000867010008670100081F
:10012000670100086701000867010008670100080F
:10013000DFF80CD000F032F800480047A50D0008A9
:100140002014002080F3088870470000064880478C
:1001500006480047FEE7FEE7FEE7FEE7FEE7FEE7AC
:10016000FEE7FEE7FEE7FEE7BD08000831010008F4
:1001700030B50B46014600202022012409E021FA77
:1001800002F59D4205D303FA02F5491B04FA02F574
:100190002844151EA2F10102F1DC30BD064C074DCA
:1001A00006E0E06840F0010394E807009847103447
:1001B000AC42F6D3FFF7C0FFA40E0008C40E00083F
:1001C00008B50121102000F0EFF910208DF8030090
:1001D00003208DF802000120ADF8000069460248B6
:1001E00000F0EBF808BD00000010014000BFFEE782
:1001F000704770B54FF47A7300FB03F1002247E0BB
:1002000000BF00BF00BF00BF00BF00BF00BF00BFF6
:1002100000BF00BF00BF00BF00BF00BF00BF00BFE6
:1002200000BF00BF00BF00BF00BF00BF00BF00BFD6
:1002300000BF00BF00BF00BF00BF00BF00BF00BFC6
:1002400000BF00BF00BF00BF00BF00BF00BF00BFB6
:1002500000BF00BF00BF00BF00BF00BF00BF00BFA6
:1002600000BF00BF00BF00BF00BF00BF00BF00BF96
:1002700000BF00BF00BF00BF00BF00BF00BF00BF86
:1002800000BF00BF00BF00BF00BF00BF00BF00BF76
:1002900013460C46491E62F100020026744073406A
:1002A0001C43ADD170BD000030B5044604254FF4A9
:1002B000302000F06FF80546042D17D10C48006976
:1002C00040F002000A49086108464461006940F0B4
:1002D000400008614FF4302000F05CF80546044807
:1002E000006941F6FD71084001490861284630BDAA
:1002F0000020024004200B49C96801F0010109B146
:1003000001200EE00749C96801F0040109B102208B
:1003100007E00449C96801F0100109B1032000E0B9
:1003200004207047002002400348006940F080002C
:1003300001490861704700000020024070B5044682
:100340000D460426F00200F025F80646042E11D1D1
:100350000948006940F00100074908612580F00262
:1003600000F018F806460448006941F6FE7108409E
:1003700001490861304670BD00200240024803492F
:1003800048600348486070472301674500200240E9
:10039000AB89EFCD00B502460423FFF7ABFF034660
:1003A00003E0FFF7A7FF0346521E012B01D1002AED
:1003B000F7D102B90523184600BD2DE9F0410246E8
:1003C00000250026002000230024002791F803C008
:1003D0000CF00F0591F803C00CF0100CBCF1000FED
:1003E00003D091F802C04CEA050591F800C0BCF1B9
:1003F000000F31D0146800202BE04FF0010C0CFAF4
:1004000000F3B1F800C00CEA03069E4220D183003D
:100410004FF00F0C0CFA03F7BC4305FA03FC4CEA4F
:10042000040491F803C0BCF1280F06D14FF0010C71
:100430000CFA00FCC2F814C00AE091F803C0BCF149
:10044000480F05D14FF0010C0CFA00FCC2F810C0A7
:10045000401C0828D1D31460B1F800C0BCF1FF0FD4
:1004600034DD546800202EE000F1080C4FF0010844
:1004700008FA0CF3B1F800C00CEA03069E4221D141
:1004800083004FF00F0C0CFA03F7BC4305FA03FC92
:100490004CEA040491F803C0BCF1280F05D100F127
:1004A000080C08FA0CF8C2F8148091F803C0BCF1EB
:1004B000480F07D100F1080C4FF0010808FA0CF8BA
:1004C000C2F81080401C0828CED35460BDE8F081EB
:1004D0000161704700BFFEE708B50121142000F05C
:1004E00063F804208DF8030003208DF8020001203A
:1004F000ADF8000069460548FFF75FFF7020ADF8D2
:10050000000069460248FFF758FF08BD0008014097
:100510000010014070B504460D4629462046FFF7FD
:10052000D7FF70BDC2684A40C260704708B501215C
:10053000402000F039F810208DF8030003208DF8DA
:1005400002000420ADF8000069461448FFF735FFAB
:100550000820ADF8000069461048FFF72EFF102074
:10056000ADF8000069460D48FFF727FF2020ADF8E1
:10057000000069460948FFF720FF04210748FFF7FC
:10058000C9FF08210548FFF7C5FF10210348FFF701
:10059000C1FF20210148FFF7BDFF08BD0018014041
:1005A00000BFFEE77047704729B1064A92690243CF
:1005B000044B9A6104E0034A92698243014B9A61B9
:1005C000704700000010024030B5002100220024D6
:1005D00000232D4D6D6805F00C0121B1042905D0D3
:1005E000082923D105E0294D056022E0274D05604B
:1005F0001FE0254D6D6805F47012234D6D6805F4FC
:100600008034022505EB92421CB9214D554305600B
:100610000BE01D4D6D6805F400351DB11C4D5543B3
:10062000056002E0194D5543056002E0174D056075
:1006300000BF00BF144D6D6805F0F0010909154DAC
:100640006B5C0568DD4045600F4D6D6805F4E06149
:10065000090A104D6B5C4568DD4085600A4D6D6888
:1006600005F46051C90A0B4D6B5C4568DD40C560FF
:10067000054D6D6805F44041890B074D6B5CC568FD
:10068000B5FBF3F5056130BD0010024000127A00A1
:1006900000093D00040000201400002030B503468E
:1006A0000C461546002207E0184600F008F824F82A
:1006B00012009B1C501C82B2AA42F5DB30BD0146E1
:1006C000088870472DE9F05F80468A461746B8F1E2
:1006D000006F02D33348804501D3BDE8F09FFFF798
:1006E0004DFEA8F1006B4FEADB25CBF34909C9F5B4
:1006F0008064A74200DC3C464DE04FF0006101EB16
:10070000C5204A142849FFF7C9FF00260BE009EB72
:100710000600254931F810004FF6FF71884200D0DD
:1007200003E0701C86B2A642F1DB00BFA6421BDAD2
:100730004FF0006101EBC520FFF7B6FD002608E091
:100740003AF8160006EB0901174A22F81100701C4E
:1007500086B2A642F4DB4FF0006101EBC5204A14DB
:10076000114900F023F804E022465146404600F0CB
:100770001DF8A74200D10FE06D1C4FF000090AEBF5
:10078000440AA044381B87B2B7F5806F02DD4FF4EE
:10079000806400E03C46B0E700BFFFF7C5FD00BF46
:1007A0009BE70000000008081C0800202DE9F0412C
:1007B00005460E461746002407E036F81410284672
:1007C000FFF7BCFDAD1C601C84B2BC42F5DBBDE88C
:1007D000F081704710B500F001F810BD0CB5002095
:1007E000019000903348006840F48030314908603F
:1007F00000BF3048006800F4003000900198401CB1
:100800000190009818B90198B0F5A06FF1D129486E
:10081000006800F4003010B10120009001E00020D9
:1008200000900098012843D12348006840F0100050
:10083000214908600846006820F003000860084667
:10084000006840F0020008601A4840681949486092
:100850000846406848600846406840F48060486048
:100860000846406820F47C1048600846406840F420
:10087000E81048600846006840F08070086000BFDB
:100880000C48006800F000700028F9D00948406862
:1008900020F00300074948600846406840F0020025
:1008A000486000BF0348406800F00C000828F9D1F8
:1008B0000CBD0000001002400020024010B513489B
:1008C000006840F00100114908600846406810497E
:1008D00008400E494860084600680E4908400B4928
:1008E00008600846006820F48020086008464068D8
:1008F00020F4FE0048604FF41F008860FFF76AFF95
:100900004FF000600449086010BD00000010024074
:100910000000FFF8FFFFF6FE08ED00E021B182893C
:1009200042F40052828104E082894DF6FF731A403E
:100930008281704702460020B1F5007F00D100BFE0
:1009400013880B400BB1012000E00020704700002D
:100950002DE9F04786B005460E460024A24600BFAA
:10096000A1460027B08900B100BF2F462C8A4CF663
:10097000FF700440F08804432C82AC894EF6F310DB
:100980000440B08831890843718908430443AC812D
:10099000AC8A4FF6FF400440B0890443AC8201A802
:1009A000FFF712FE1F48874202D1DDF810A001E0D8
:1009B000DDF80CA0A88900F4004040B10AEBCA00A1
:1009C00000EB0A1031684900B0FBF1F807E00AEBD0
:1009D000CA0000EB0A1031688900B0FBF1F864200E
:1009E000B8FBF0F004012009642101FB1089A889FB
:1009F00000F4004040B1322000EBC900B0FBF1F040
:100A000000F00700044308E0322000EB09106421E5
:100A1000B0FBF1F000F00F0004432C8106B0BDE8FC
:100A2000F087000000380140C1F30802828070475F
:100A300038B515480068009014A000F0CBF80024E9
:100A400014E0214616A000F0C5F81A4901EBC420B5
:100A50004FF480621849FFF721FE184901EBC420CA
:100A60004A141549FFF72EFE601C84B27D2CE8DB8A
:100A700013A000F0AFF8022269461548FFF722FEE6
:100A800000F07AF838BD0000A00E0008BFAACABC6A
:100A9000B8FCD0C2B9CCBCFE2E2E2E0D0A00000030
:100AA000D5FDD4DAB8FCD0C2B9CCBCFE25642E2E5C
:100AB0002E0D0A00001804081C0000200030000859
:100AC000B9CCBCFEB8FCD0C2CDEAB3C9210D0A0036
:100AD000FCFF070800BFFEE700B585B00121042038
:100AE000FFF762FD18208DF8130003208DF8120027
:100AF0004FF40070ADF8100004A91548FFF75DFC35
:100B000004208DF813000002ADF8100004A910486D
:100B1000FFF753FC01218803FFF746FD4FF4E13056
:100B200000900020ADF80C000C20ADF80A00002069
:100B3000ADF80800ADF80600ADF8040069460548B8
:100B4000FFF706FF01210348FFF7E8FE05B000BDEF
:100B5000000801400038014010B5044600BF4021A4
:100B60000448FFF7E7FE0028F9D021460148FFF7C7
:100B70005BFF10BD0038014010B509A000F02AF855
:100B80000E48406800F07F40B0F1006F03D10B4881
:100B900000F0F2F802E00AA000F01CF810BD00001E
:100BA000BFAACABCD6B4D0D0464C415348D3C3BB6D
:100BB000A7B4FAC2EB21210D0A00000000300008A2
:100BC000415050B3CCD0F2BCD3D4D8CAA7B0DC21AA
:100BD0000D0A00000FB4054B10B503A9044A029892
:100BE00000F018F810BC5DF814FB0000690D000857
:100BF0001800002002E008C8121F08C1002AFAD11C
:100C000070477047002001E001C1121F002AFBD18C
:100C1000704700002DE9FF4F89B09B460446002530
:100C200006E025280BD05A460B999047641C6D1C92
:100C300020780028F5D10DB02846BDE8F08F0027B8
:100C4000B8460122474900E0074314F8013F203B22
:100C500002FA03F00842F7D120782E2819D114F8AF
:100C6000010F47F004072A280ED06FF02F022078DA
:100C7000A0F1300109290CD808EB880102EB4101F1
:100C800000EB0108641CF2E70A98641C50F8048B1E
:100C90000A9020780028CED0642808D0692806D091
:100CA00075281ED05A460B9990476D1C58E00A993A
:100CB0004FF00A0901C90A91002802DA40422D21A9
:100CC00002E0390504D52B218DF82010012103E025
:100CD000F90704D02021F7E78A4608AE0DE000218D
:100CE000FAE70A994FF00A0901C90A91F7E749465C
:100CF000FFF73EFA303106F8011D0028F7D1ADEBC1
:100D0000060000F12009780701D44FF00108C8451A
:100D100002DDA8EB090000E000208046002706E085
:100D200008A85A46C05D0B9990476D1C7F1C57451B
:100D3000F6DB04E030205A460B9990476D1CB8F161
:100D40000001A8F10108F5DC05E016F8010B5A4690
:100D50000B9990476D1CB9F10001A9F10109F4DC70
:100D6000641C65E70928010070B504460D46E0B231
:100D7000FFF7F2FE204670BD10B504462068074913
:100D80000840B0F1005F08D160680549086020683C
:100D9000FFF7D8F902480068804710BD0000FE2F19
:100DA0000000002008B50020009004200246234BDC
:100DB00019684FF6FF031940214B0B4343EA022108
:100DC0001E4B196000BFFFF7B1FBFFF785FBFFF774
:100DD000F7F9FFF781FE1BA0FFF7FCFE0222694630
:100DE0001E48FFF75BFCBDF800004AF6AA218842C6
:100DF00009D1BDF80200884205D119A0FFF7EAFE2B
:100E0000FFF716FE04E01EA0FFF7E4FEFFF7B4FEB6
:100E100012E004212148FFF785FB08211F48FFF756
:100E200081FB10211D48FFF77DFB20211B48FFF7A8
:100E300079FBC820FFF7DDF9EBE700000CED00E0DF
:100E40000000FA05426F6F746C6F61646572B3CC19
:100E5000D0F2D6B4D0D00D0A00000000FCFF070885
:100E6000D3D0B8FCD0C2B3CCD0F22CD5FDD4DAD6D6
:100E7000B4D0D0B4FAC2EBC9FDBCB60D0A00000074
:100E8000C3BBD3D0D0C2B5C4B3CCD0F22CD6B4D06F
:100E9000D0D4ADD3D04150500D0A0000001801400D
:100EA000FFFFFFFFC40E0008000000201C00000030
:100EB000F40B0008E00E00081C00002004140000E1
:100EC000040C000800000000000000000102030400
:100ED00001020304060708090204060800000000D6
:0400000508000131BD
:00000001FF
