:020000040800F2
:103000005004002045310008ED3600081D36000848
:10301000E9360008E5310008653D000800000000C1
:103020000000000000000000000000002939000836
:10303000E931000800000000EF360008153A0008EA
:103040005F3100085F3100085F3100085F31000820
:103050005F3100085F3100089F3200085F310008CF
:103060005F3100085F310008B13200085F310008AD
:103070005F3100085F3100085F3100085F310008F0
:103080005F3100085F3100085F3100085F310008E0
:103090005F3100085F3100085F310008C532000869
:1030A0005F3100085F3100085F3100085F310008C0
:1030B0005F3100085F3100085F3100085F310008B0
:1030C0005F3100085F3100085F3100085F310008A0
:1030D0005F3100083D3B00085F3100085F310008A8
:1030E0005F3100085F3100085F3100085F31000880
:1030F0005F3100085F3100085F3100085F31000870
:103100005F3100085F3100085F3100085F3100085F
:103110005F3100085F310008E93A00085F310008BC
:103120005F3100085F3100085F3100085F3100083F
:10313000DFF80CD000F02EF80048004729400008C6
:10314000500400200648804706480047FEE7FEE797
:10315000FEE7FEE7FEE7FEE7FEE7FEE7FEE7FEE747
:10316000893A00083131000830B50B46014600208D
:103170002022012409E021FA02F59D4205D303FA39
:1031800002F5491B04FA02F52844151EA2F10102BA
:10319000F1DC30BD064C074D06E0E06840F001036D
:1031A00094E8070098471034AC42F6D3FFF7C4FF09
:1031B0004C4100086C41000808B50121102000F0C6
:1031C00097FA10208DF8030003208DF802000120EB
:1031D000ADF800006946024800F029F908BD00007A
:1031E0000010014000BFFEE7704770B54FF47A73DE
:1031F00000FB03F1002247E000BF00BF00BF00BF9B
:1032000000BF00BF00BF00BF00BF00BF00BF00BFC6
:1032100000BF00BF00BF00BF00BF00BF00BF00BFB6
:1032200000BF00BF00BF00BF00BF00BF00BF00BFA6
:1032300000BF00BF00BF00BF00BF00BF00BF00BF96
:1032400000BF00BF00BF00BF00BF00BF00BF00BF86
:1032500000BF00BF00BF00BF00BF00BF00BF00BF76
:1032600000BF00BF00BF00BF00BF00BF00BF00BF66
:1032700000BF00BF00BF00BF00BF00BF00BF00BF56
:1032800000BF00BF00BF00BF13460C46491E62F1DD
:1032900000020026744073401C43ADD170BD10B5D0
:1032A000012000F027F8012801D100F01DF810BD21
:1032B00010B5102000F01EF8012802D1102000F0F7
:1032C00013F810BD10B5202000F014F8012802D129
:1032D000202000F009F8402000F00CF8012802D16D
:1032E000402000F001F810BD01490860704700005F
:1032F00014040140014600200022074B1B6803EA2A
:103300000102054B14331B680B4013B10AB10120B5
:1033100000E00020704700000004014030B5044682
:1033200004254FF4302000F06FF80546042D17D126
:103330000C48006940F002000A49086108464461EF
:10334000006940F0400008614FF4302000F05CF864
:1033500005460448006941F6FD71084001490861CD
:10336000284630BD0020024004200B49C96801F006
:10337000010109B101200EE00749C96801F004010B
:1033800009B1022007E00449C96801F0100109B140
:10339000032000E004207047002002400348006939
:1033A00040F08000014908617047000000200240A1
:1033B00070B504460D460426F00200F025F80646D6
:1033C000042E11D10948006940F001000749086145
:1033D0002580F00200F018F806460448006941F61E
:1033E000FE71084001490861304670BD002002406E
:1033F0000248034948600348486070472301674515
:1034000000200240AB89EFCD00B502460423FFF750
:10341000ABFF034603E0FFF7A7FF0346521E012B55
:1034200001D1002AF7D102B90523184600BD2DE9C4
:10343000F04102460025002600200023002400273A
:1034400091F803C00CF00F0591F803C00CF0100CBC
:10345000BCF1000F03D091F802C04CEA050591F8C9
:1034600000C0BCF1000F31D0146800202BE04FF0F9
:10347000010C0CFA00F3B1F800C00CEA03069E42FE
:1034800020D183004FF00F0C0CFA03F7BC4305FA70
:1034900003FC4CEA040491F803C0BCF1280F06D1E8
:1034A0004FF0010C0CFA00FCC2F814C00AE091F8CD
:1034B00003C0BCF1480F05D14FF0010C0CFA00FC21
:1034C000C2F810C0401C0828D1D31460B1F800C065
:1034D000BCF1FF0F34DD546800202EE000F1080C31
:1034E0004FF0010808FA0CF3B1F800C00CEA03062B
:1034F0009E4221D183004FF00F0C0CFA03F7BC431E
:1035000005FA03FC4CEA040491F803C0BCF1280F4F
:1035100005D100F1080C08FA0CF8C2F8148091F8F3
:1035200003C0BCF1480F07D100F1080C4FF00108AF
:1035300008FA0CF8C2F81080401C0828CED354605A
:10354000BDE8F0810246002093680B400BB10120DA
:1035500000E0002070474161704701617047000042
:1035600010B5002401212B48FFF7ECFF012810D1F2
:103570000A20FFF73AFE01212648FFF7E3FF012862
:1035800007D100BF01212348FFF7DCFF0128F9D054
:10359000012410212048FFF7D5FF78B90A20FFF752
:1035A00024FE1D48806800F0100038B900BF1A489A
:1035B000806800F010000028F9D0022416488068C6
:1035C00000F0200078B90A20FFF70FFE124880684B
:1035D00000F0200038B900BF0F48806800F02000DC
:1035E0000028F9D003240C48806800F0400078B926
:1035F0000A20FFF7FAFD0848806800F0400038B95B
:1036000000BF0548806800F040000028F9D004247D
:10361000204610BD000801400010014000BFFEE739
:1036200008B50121142000F063F804208DF8030090
:1036300003208DF802000120ADF80000694605481E
:10364000FFF7F5FE7020ADF8000069460248FFF76D
:10365000EEFE08BD000801400010014070B50446B0
:103660000D4629462046FFF778FF70BDC2684A40E4
:10367000C260704708B50121402000F039F81020E1
:103680008DF8030003208DF802000420ADF800003F
:1036900069461448FFF7CBFE0820ADF800006946E4
:1036A0001048FFF7C4FE1020ADF8000069460D4831
:1036B000FFF7BDFE2020ADF8000069460948FFF77E
:1036C000B6FE04210748FFF7C9FF08210548FFF7A8
:1036D000C5FF10210348FFF7C1FF20210148FFF774
:1036E000BDFF08BD0018014000BFFEE770477047EE
:1036F00029B1064A92690243044B9A6104E0034AE5
:1037000092698243014B9A617047000000100240A9
:1037100030B500210022002400232D4D6D6805F0F6
:103720000C0121B1042905D0082923D105E0294D38
:10373000056022E0274D05601FE0254D6D6805F40A
:103740007012234D6D6805F48034022505EB92421A
:103750001CB9214D554305600BE01D4D6D6805F406
:1037600000351DB11C4D5543056002E0194D554310
:10377000056002E0174D056000BF00BF144D6D6885
:1037800005F0F0010909154D6B5C0568DD404560E9
:103790000F4D6D6805F4E061090A104D6B5C4568DA
:1037A000DD4085600A4D6D6805F46051C90A0B4D16
:1037B0006B5C4568DD40C560054D6D6805F44041B2
:1037C000890B074D6B5CC568B5FBF3F5056130BD32
:1037D0000010024000127A0000093D003200002073
:1037E0004200002010B51148007801281CD1104873
:1037F000016810A000F032FB00200D4908600B4961
:10380000087012490870124812490860124801886D
:10381000124800F07DF8104801881048801C00F024
:1038200077F80FA000F01AFB10BD00002D0000205B
:1038300024000020415050CAFDBEDDBDD3CAD5CD05
:10384000EAB3C93A25640D0A000000002C000020EC
:1038500000180408280000202E000020FCFF0708A4
:10386000BACBB6D4CAFDBEDDCEDECEF3BAF3A3AC7E
:10387000C7EBB0B4CFC2B8B4CEBBB0B4BCFCBDF8DB
:10388000D0D0CAFDBEDDB8FCD0C20D0A00000000D9
:103890000948007870B108480078401C0649087053
:1038A00008460078642805DB0120044908700020E0
:1038B00001490870704700002C0000202D000020F6
:1038C0002DE9F04104460E460025C6F3CF27B4F19A
:1038D000006F02D30D48844202D3FF20BDE8F0817F
:1038E000C4F30A0008B1FE20F8E7FFF781FD0025C8
:1038F00005E004EBC520FFF711FD681C85B2BD4251
:10390000F7DBFFF74BFD0020E8E7000000000808A8
:1039100070B504460D46FFF76BFD29462046FFF7BC
:1039200047FDFFF73BFD70BD704710B500F002F892
:1039300010BD00000CB500200190009033480068D5
:1039400040F480303149086000BF3048006800F41E
:10395000003000900198401C0190009818B901981F
:10396000B0F5A06FF1D12948006800F4003010B123
:103970000120009001E0002000900098012843D130
:103980002348006840F0100021490860084600689C
:1039900020F0030008600846006840F0020008605C
:1039A0001A48406819494860084640684860084617
:1039B000406840F4806048600846406820F47C100D
:1039C00048600846406840F4E810486008460068CF
:1039D00040F08070086000BF0C48006800F0007084
:1039E0000028F9D00948406820F0030007494860E2
:1039F0000846406840F00200486000BF0348406845
:103A000000F00C000828F9D10CBD000000100240A5
:103A10000020024010B5FFF73BFF0A480068401C39
:103A20000849086008480068401C074908600748C2
:103A30000068401C0549086005480068401C0449AE
:103A4000086010BD00000020040000200C000020D1
:103A50001400002010B50B4C601EB0F1807F00D325
:103A60000FE0601E4FF0E02148610F214FF0FF3062
:103A700000F004FA00204FF0E0218861072008617F
:103A800000BF10BD4019010010B51348006840F098
:103A900001001149086008464068104908400E4975
:103AA0004860084600680E4908400B49086008460F
:103AB000006820F4802008600846406820F4FE007A
:103AC00048604FF41F008860FFF72FFF4FF0006041
:103AD0000449086010BD0000001002400000FFF81B
:103AE000FFFFF6FE08ED00E010B50121074800F0E9
:103AF00014F8012808D10121044800F00BF804480B
:103B00000068401E0249086010BD0000001000401F
:103B10001C000020CA430282704730B502460020D4
:103B200000230024158A05EA0103958905EA0104AA
:103B300013B10CB1012000E0002030BD70B50024AD
:103B4000002540F22551164800F04DF8012826D1F5
:103B50001348001D0088C4B21248007800F001002C
:103B600011490C540F48007800F0010078B1084664
:103B70000078497800EB012085B229460B4800689F
:103B8000FFF7C6FE09480068801C08490860054820
:103B90000068401C0349086001200549087070BD99
:103BA00000380140240000202000002028000020D0
:103BB0002C00002021B1828942F40052828104E06D
:103BC00082894DF6FF731A408281704702460020B9
:103BD000B1F5007F00D100BF13880B400BB101206D
:103BE00000E00020704770B5024600240023002545
:103BF000002040F66A16B14200D100BFC1F3421561
:103C000001F01F03012606FA03F3012D02D1968964
:103C1000334006E0022D02D1168A334001E0968A35
:103C200033400C12012606FA04F41688344013B10E
:103C30000CB1012000E0002070BDF0B50346002467
:103C400000260025002040F66A17B94200D100BFC7
:103C50001846C1F3421401F01F06012707FA06F5C2
:103C6000012C01D10C3004E0022C01D1103000E015
:103C700014301AB107682F43076002E00768AF43AA
:103C80000760F0BD2DE9F04786B005460E460024DA
:103C9000A24600BFA1460027B08900B100BF2F4651
:103CA0002C8A4CF6FF700440F08804432C82AC89C7
:103CB0004EF6F3100440B0883189084371890843F7
:103CC0000443AC81AC8A4FF6FF400440B089044302
:103CD000AC8201A8FFF71CFD1F48874202D1DDF826
:103CE00010A001E0DDF80CA0A88900F4004040B16C
:103CF0000AEBCA0000EB0A1031684900B0FBF1F88A
:103D000007E00AEBCA0000EB0A1031688900B0FB3B
:103D1000F1F86420B8FBF0F004012009642101FBF4
:103D20001089A88900F4004040B1322000EBC9009E
:103D3000B0FBF1F000F00700044308E0322000EB94
:103D400009106421B0FBF1F000F00F0004432C8156
:103D500006B0BDE8F087000000380140C1F308025A
:103D60008280704700BFFEE710B586B001210420B5
:103D7000FFF7BEFC18208DF8170003208DF8160001
:103D80004FF40070ADF8140005A92848FFF74FFB69
:103D900004208DF817000002ADF8140005A923488F
:103DA000FFF745FB01218803FFF7A2FC4FF4E13048
:103DB00001900020ADF810000C20ADF80E0000209E
:103DC000ADF80C00ADF80A00ADF8080001A91848DC
:103DD000FFF758FF012240F225511548FFF72DFF4C
:103DE00025200021002804DB0A07130E114A135472
:103DF00006E00A07140E104A00F00F031B1FD454EC
:103E000000BF2520002809DB00F01F02012191409E
:103E10004209920002F1E022C2F8001100BF012124
:103E20000348FFF7C7FE06B010BD000000080140C0
:103E30000038014000E400E018ED00E010B5044651
:103E400000BF40210448FFF7C1FE0028F9D02146F9
:103E50000148FFF783FF10BD003801400FB4054B48
:103E600010B503A9044A029800F02CF810BC5DF8C4
:103E700014FB0000194000084800002010B500287D
:103E800004DB0A07130E054A135406E00A07140E52
:103E9000034A00F00F031B1FD45410BD00E400E0E0
:103EA00018ED00E002E008C8121F08C1002AFAD18C
:103EB00070477047002001E001C1121F002AFBD1AA
:103EC000704700002DE9FF4F89B09B46044600254E
:103ED00006E025280BD05A460B999047641C6D1CB0
:103EE00020780028F5D10DB02846BDE8F08F0027D6
:103EF000B8460122474900E0074314F8013F203B40
:103F000002FA03F00842F7D120782E2819D114F8CC
:103F1000010F47F004072A280ED06FF02F022078F7
:103F2000A0F1300109290CD808EB880102EB41010E
:103F300000EB0108641CF2E70A98641C50F8048B3B
:103F40000A9020780028CED0642808D0692806D0AE
:103F500075281ED05A460B9990476D1C58E00A9957
:103F60004FF00A0901C90A91002802DA40422D21C6
:103F700002E0390504D52B218DF82010012103E042
:103F8000F90704D02021F7E78A4608AE0DE00021AA
:103F9000FAE70A994FF00A0901C90A91F7E7494679
:103FA000FFF7E2F8303106F8011D0028F7D1ADEB3C
:103FB000060000F12009780701D44FF00108C84538
:103FC00002DDA8EB090000E000208046002706E0A3
:103FD00008A85A46C05D0B9990476D1C7F1C574539
:103FE000F6DB04E030205A460B9990476D1CB8F17F
:103FF0000001A8F10108F5DC05E016F8010B5A46AE
:104000000B9990476D1CB9F10001A9F10109F4DC8D
:10401000641C65E70928010070B504460D46E0B24E
:10402000FFF70CFF204670BD2E482F490860042082
:1040300002460B1D19684FF6FF0319402B4B0B432B
:1040400043EA0221284B1B1D196000BFFFF702FD48
:10405000FFF710FBFFF7E4FAFFF7AEF8FFF784FE77
:1040600023A0FFF7FBFE4FF47A312648FFF728FC28
:1040700010B925A0FFF7F2FE32E0FFF7B3FB2848A6
:1040800000682749496888421AD9FFF769FA012868
:1040900002D0022810D107E022A0FFF7DFFE0121A5
:1040A0002248FFF75AFA07E021A0FFF7D7FE0121C7
:1040B0001E48FFF750FA00BF00BF002018490860F3
:1040C0001D4800681C494968884209D904211B48D9
:1040D000FFF7CCFA1AA0FFF7C1FE002016490860CE
:1040E000CBE700000030000808ED00E00000FA0512
:1040F000D0C2B5C4415050D5FDD4DAD6B4D0D00D1D
:104100000A00000000180408415050B1B8B7DDC7DC
:10411000F8D3F2B2C1B3FDB3C9B9A60D0A000000CD
:104120000C000020B0B4BCFC310D0A0000100140AE
:10413000B0B4BCFC320D0A0004000020001801409D
:10414000415050D6B4D0D00D0A0000006C41000898
:10415000000000204C000000A43E0008B841000808
:104160004C00002004040000B43E000800000000E1
:1041700000000000F4010000000000000A00000040
:1041800000000000BC020000000000000000000071
:1041900000000000001804080000AAAAAAAA000053
:1041A00000000102030401020304060708090204D7
:0841B0000608000000000000F9
:04000005080031318D
:00000001FF
